S01400006361745F6465746563746F722E737265631F
S113000009C019C079C017C016C015C014C013C0E8
S113001012C011C011241FBECFE9CDBF10E0A0E66D
S1130020B0E0E6E3F2E002C005900D92A236B1071B
S1130030D9F7B7D0FEC0E4CF85B5826085BD85B75A
S1130040877E806185BFF89485B7806285BF80B75D
S1130050836080BF8E7F80BF7894889585B78F7DBD
S113006085BF85B58D7F85BD0895B99A23E22FBDDF
S1130070FC01808189BD0895FC01C29883B7887F03
S113008083BF12BEC198818181112EC032C020E08D
S1130090C29A8481811104C080916000882319F080
S11300A093B7916093BF8FEB92E10197F1F700C092
S11300B00000C29893B7987F93BF12BEC1988FE790
S11300C09CE00197F1F700C000002F5F82812817A0
S11300D0F8F28FE79EE30197F1F700C000003F5F5D
S11300E08181381710F005C030E082818111CFCFB3
S11300F0F0CF1092600008951F920F920FB60F92E6
S113010011240F900FBE0F901F90189585E090E07A
S113011078D091E0811101C090E0892F0895CF93A8
S1130120DF93EC01688180E090E072D0698181E026
S113013090E06ED06A8182E090E06AD06B8183E0C7
S113014090E066D06C8184E090E062D060E085E06D
S113015090E05ED0DF91CF910895CF93DF93EC01CF
S113016080E090E04ED0888381E090E04AD089839B
S113017082E090E046D08A8383E090E042D08B8393
S113018084E090E03ED08C83DF91CF910895FC0110
S113019083E08283818384E0808381E0838314828B
S11301A00895CF93DF93CDB7DD27C550CDBFBA9A5D
S11301B0BB98BC98ABDF882339F0CE010196E7DF0A
S11301C0CE010196ACDF03C0CE010196C6DFCE019D
S11301D001964BDF85B5816085BD479AC09A8BB780
S11301E080628BBFAB9A789427DFB39BFDCFB49921
S11301F0FBCFCE01019640DF8C818823A9F3C29AFC
S1130200F3CFE199FECF8EBBE09A99278DB3089581
S1130210262FE199FECF8EBBE09A81500DB20216D3
S113022039F01CBA2DBB0FB6F894E29AE19A0FBECE
S10902300895F894FFCFCD
S10502360100C1
S9030000FC
